:06000000020D8E02006BF0
:03000B0002006B85
:0300130002006B7D
:03001B0002006B75
:0300230002006B6D
:03002B0002006B65
:0300330002006B5D
:03003B0002006B55
:0300430002006B4D
:03004B0002006B45
:0300530002006B3D
:03005B0002006B35
:0300630002006B2D
:01006B003262
:0900800002006B0002006B00029B
:08008900006B0002006B000295
:08009100006B0002006B00028D
:08009900006B0002006B000285
:0800A100006B0002006B00027D
:0800A900006B0002006B000275
:0700B100006B0002006B0070
:0901000002006B0002006B00021A
:08010900006B0002006B000214
:08011100006B0002006B00020C
:08011900006B0002006B000204
:08012100006B0002006B0002FC
:08012900006B0002006B0002F4
:08013100006B0002006B0002EC
:08013900006B0002006B0002E4
:08014100006B0002006B0002DC
:08014900006B0002006B0002D4
:08015100006B0002006B0002CC
:08015900006B0002006B0002C4
:08016100006B0002006B0002BC
:08016900006B0002006B0002B4
:08017100006B0002006B0002AC
:07017900006B0002006B00A7
:030DBC00020DC461
:070D8E00750C0175080075EA
:060D95000900750A00755B
:040D9B000B00C20087
:030DD700020DBF4B
:050DBF001203A280FEFA
:0B018000AA82AB83EA4B24FF9280228E
:05018B0090E68BE4F09A
:0901900090E6A0E0FA20E1F8225B
:0E019900AA82AB8390E6047480F00090E60426
:0A01A700EAF00090E604E4F0002204
:0E01B100AA82AB83EA4B600890E60174E3F08B
:0201BF008006B8
:0601C10090E60174C3F09A
:0501C7008A820204DC45
:0E01CC0090E6B8E0FABAC06190E6B9E0FABA7F
:0401DA008002800F10
:0501DE00BA8102800E51
:0501E300BA8202803722
:0501E800BA83468036D9
:0401ED0075820022F5
:0A01F10090E6BAE0FA75224075238B
:0C01FB00E790E6BEE0F5248A82120620A0
:07020700E5827003F582227D
:0E020E0090E68AE4F090E6BEE0FA90E68BF00F
:03021C0002031CBE
:04021F0075820022C2
:0E02230090E68AE4F090E68B7403F002031C70
:0402310075820022B0
:0A02350090E6B8E0FABA4002800338
:03023F000203189F
:0A02420090E6B9E0FABA0102802646
:05024C00BA0202804926
:06025100BA04030202C41E
:06025700BA08030202D404
:06025D00BA0C030202F4DA
:06026300BA0D03020304C2
:06026900BA0E0302031CA3
:03026F0002031473
:0C02720090E6BCE0FA6005BA011A800CAE
:0C027E0090E6BAE0F5821204DC02031CDA
:0C028A0090E6BAE0F5821204E902031CC1
:04029600758200224B
:0C029A0090E6BCE0FA600ABA010280089D
:0502A600BA02178012EE
:0302AB0002050049
:0C02AE0012018B90E68BE0F50F90E7400A
:0302BA0002056AD0
:0302BD0002057ABD
:0402C0007582002221
:0E02C40090E6BAE0FA7B008A828B83120180FA
:0202D200804862
:0C02D40012018B90E6BAE0FA752240752A
:0A02E00023E790E68BE0F5248A8204
:0A02EA001206E0E582702BF5822277
:0E02F40090E6BAE0FA7B008A828B83120199B1
:02030200801861
:0E03040090E6BAE0FA7B008A828B831201B188
:02031200800861
:0403140075820022CC
:0403180075820022C8
:04031C0075820122C3
:080320003001FD1208DB80F83A
:0A032800C0E0D50C06750C3263A08E
:0103320001C9
:05033300C2CFD0E03252
:0403380075130075C4
:03033C001418751D
:09033F00120575150175825012BA
:080348000589901800E0FA900D
:0C035000E00CF090E07AEAF074302A90A3
:05035C00E0F6F075134E
:030361000175140F
:05036400187512F77589
:0A03690015097582501205897A000B
:03037300BA0900C4
:0A0376005029EA2401F582E434184E
:09038000F583E0FBBBFF027B30BA
:0C0389008A04E4CC25E0CC33FDEC2452C7
:0C039500F582ED34E1F583EBF00A80D234
:0103A1002239
:0803A200752200752310E4F53B
:0B03AA002490E1F075F00012075912DA
:0C03B50003D87582001204DC758200126F
:0803C10004E9C2AF1203381277
:0A03C9000CC1120845D2EAD2AF12AF
:0503D30005FC020320FF
:0E03D80090E6007410F0758E0090E60174E05F
:0E03E600F00075800075B20B75A00375B403AE
:0E03F40075B10075B60090E61074A0F0009090
:0E040200E61174E0F00090E61274A2F0009093
:0E041000E61374A2F00090E61474E2F000907F
:0E041E00E61574E2F00090E6047480F00090A1
:0E042C00E6047402F00090E6047404F0009000
:0E043A00E6047406F00090E6047408F00090EA
:0D044800E604E4F00090E6187401F0009066
:0E045500E6187411F00090E61A7405F000909D
:0E046300E61A740DF00090E6197401F0009096
:0E047100E6197411F00090E61B7405F000907F
:0D047F00E61B740DF00090E68AE4F000909A
:0D048C00E68DE4F00090E6247402F000908C
:0E049900E625E4F00090E626E4F00090E62769
:0E04A7007420F00090E6027498F090E6037462
:0E04B50076F090E6347409F00090E63574FDA0
:0E04C300F00090E618E0FA4420F090E609E41C
:0B04D100F00090E6707480F00204FF61
:0904DC00E582FA700443A001223C
:0404E50053A0FE2200
:0904E900E582FA700443A002222E
:0404F20053A0FD22F4
:0404F60063A00122DC
:0404FA0063A00222D7
:0104FE0022DB
:0104FF0022DA
:0E0500005380E4758228120D6A4380027582D2
:02050E000122C8
:0E051000E582339283D280C280339283D28000
:0E051E00C280339283D280C280339283D28017
:0E052C00C280339283D280C280339283D28009
:0E053A00C280339283D280C280339283D280FB
:03054800C280224C
:06054B00AA82AB0DAC0E0C
:0E0551008A051AED60128B828C83E0FDA3AB4D
:0A055F0082AC838D8212051080E843
:01056900226F
:07056A0085820D85830E85DB
:090571000F8212054B7582012274
:09057A00E58030A704758201221E
:04058300758200225B
:070D9F0075100075110090B2
:090DA600180BE4F090180CF09019
:070DAF00180DF090180EF082
:010587002251
:010588002250
:0E0DDA000101010101010107000000000000FD
:0E0DE8000000000000000000000000000000FD
:0E0DF6000000003F013F01010101010722033F
:0E0E04000202020202000001010101010100D0
:0E0E1200000000000000003F0111013F01013F
:0E0E20000107000300010000000006040400AA
:0E0E2E0000000000002D002D0000003F0139E3
:0E0E3C0001010101010700030202020202008F
:0E0E4A000000000000000000002D000000006D
:020E5800003F59
:0E0E5A00812D0E000004030200812D0900000E
:0E0E680004030200812D060000040302008135
:080E76002D010000040302003D
:070E7E00A0000000EE4E0091
:0CE0000012010002FFFFFF40002502009B
:06E00C0000010102060103
:0AE012000A060002FFFFFF400100B4
:0EE01C0009025200050100C0000904000000C6
:0EE02A00FFFFFF030904010001FFFFFF0407D1
:0EE038000502020002000904020001FFFFFFC2
:0EE0460005070586020002000904030001FF21
:0EE05400FFFF07070504022000000904040076
:0CE0620001FFFFFF0807058802200000F6
:0CE06E0012010002FFFFFF40002502002D
:06E07A000001010200019B
:0AE080000A060002FFFFFF40010046
:0EE08A0009021200010100C00009040000009C
:04E09800FFFFFF0384
:01E09C00097A
:02E09D00B0E0F1
:02E09F00B6E0E9
:02E0A100DEE0BF
:02E0A300F8E0A3
:02E0A5001AE17E
:02E0A70036E160
:02E0A90050E144
:02E0AB0064E12E
:02E0AD0086E10A
:06E0B00006030000090454
:0EE0B60028034600720065006500200053003C
:0EE0C4006F0066007400770061007200650056
:0CE0D200200046006F006C006B00730023
:0EE0DE001A035500530052005000310050004C
:0AE0EC0020005200650076002000BD
:02E0F6003F00E9
:0EE0F800220343006F006D006D0061006E009A
:0EE10600640020002600200053007400610019
:06E11400740075007300A9
:0EE11A001C035400720061006E0073006D0063
:0EE1280069007400200050006100740068005F
:0EE136001A0352006500630065006900760060
:0CE14400650020005000610074006800BD
:02E150001403B6
:0EE1520033002E00310034003100350039005A
:04E160003200370052
:0EE16400220346005000470041002000430007
:0EE172006F006D006D0061006E006400200003
:06E180004F007500740061
:0EE186002003460050004700410020004300E7
:0EE194006F006D006D0061006E0064002000E1
:04E1A20049006E00C2
:09058900AA8290180FE512F0752A
:03059200220F75C0
:03059500231875B3
:0C05980024018A82C0021206E0E582D035
:0605A400027003F5822243
:0405AA00851322850E
:0305AE001423858E
:0505B10015248A8202FE
:0205B60006201D
:0805B8007810E84400600C79A2
:0C05C00001901800E4F0A3D8FCD9FAD098
:0E05CC0083D082F6D8FDC082C08375820022E3
:0805DA0090E6A0E04401F022CC
:0E05E200AA8274805AC423541FFB740F5A90CF
:0C05F000E6834BF090E683E04420F0220C
:0E05FC0090E680E0440AF09000FA120D7D9027
:0E060A00E65D74FFF090E65F74FFF05391EF31
:0806180090E680E054F7F022A7
:060DD100E478FFF6D8FDF6
:0A062000AA82E5247004758201220D
:0E062A0090E678E0FB20E6F890E6787480F029
:0A063800EA2AFA90E67974014AF00C
:0E06420090E678E0FA30E0F890E678E0FA30E2
:05065000E2030206D5E3
:0B06550090E678E0FA20E1030206D5F1
:0C0660007401B5240890E678E0FA44200C
:01066C00F09D
:09066D0090E679E0F525AA22AB24
:0306760023AC248E
:040679001CEC6030E5
:0E067D0090E678E0FD30E0F890E678E0FD20B1
:0D068B00E248BC010890E678E0FD4420F054
:0E06980090E679E0FD8A828B83F0A3AA82AB04
:0706A600838A228B2380CC24
:0E06AD0090E678E0FA30E0F890E678E0FA2087
:0C06BB00E21890E678E04440F0AA22AB80
:0C06C7002390E679E08A828B83F0758234
:0206D300012202
:0B06D50090E678E04440F075820022BF
:0206E000AA82EC
:0E06E20090E678E0FB20E6F890E6787480F071
:0706F000EA2AFA90E679F016
:0E06F70090E678E0FA30E0F890E678E0FA203D
:0C070500E24790E678E0FA30E13FAA22DB
:04071100AB23AC2446
:0E071500EC602B8A828B83E0FDA3AA82AB836B
:0607230090E679EDF01CE8
:0E07290090E678E0FD30E0F890E678E0FD2004
:0C073700E21590E678E0FD20E1D4800B94
:0B07430090E678E04440F0758201224F
:0B074E0090E678E04440F07582002245
:0A075900AC82AD83AE23AF24BE00D6
:0507630004EF600C1F13
:030768000FE52278
:08076B00120BA3A3DEFADFF874
:050773008C828D832241
:060DB60075160075170020
:0A07780090E680E0FA30E7197518EA
:03078200007519E6
:03078500E0751A02
:0307880012751BCC
:03078B00E0751CFA
:03078E001C751DBA
:03079100E0751EF2
:030794008A751F44
:02079700E0225E
:0407990075186E75EC
:03079D0019E075EB
:0307A0001A807547
:0307A3001BE075E3
:0307A6001C8A7535
:0307A9001DE075DB
:0307AC001E1C759B
:0307AF001FE02226
:0907B2005391EF75A100D2013250
:0C07BB00C021C0E0C0F0C082C083C002BA
:0E07C700C003C004C005C006C007C000C001CA
:0E07D500C0D075D0005391EF75A100120778C7
:0E07E300D0D0D001D000D007D006D005D00471
:0D07F100D003D002D083D082D0F0D0E0D071
:0207FE002132A6
:0C080000C021C0E0C0F0C082C083C00274
:0E080C00C003C004C005C006C007C000C00184
:0E081A00C0D075D0005391EF75A10012077881
:0E082800D0D0D001D000D007D006D005D0042B
:0D083600D003D002D083D082D0F0D0E0D02B
:02084300213260
:05084500120778752286
:03084A00B2752361
:08084D0007758200120C1F75F3
:0308550022BB754E
:0608580023077582101257
:04085E000C1F7522D4
:03086200007523FB
:0C08650008758214120C1F90E65C7431C0
:02087100F02273
:0D087300E582547FFA24F7500475820022BC
:07088000BA01047582012298
:08088700530201E4BA00010470
:03088F00F58222CD
:0E089200AA82BA010C90E6A1E0FB7C008B82EA
:0308A0008C832224
:0E08A300BA810C90E6A2E0FB7C008B828C8375
:0108B1002224
:0E08B20053027FEA700C90E6A0E0FB7C008B06
:0408C000828C832281
:0E08C40090E6A3E0FB7C00EAC313FA7D00EA95
:0908D2002BFBED3C8B82F5832227
:0C08DB00C20190E6B8E0FA530260BA00D7
:0308E70002802864
:0508EA00BA2002800DA0
:0508EF00BA4002800E7A
:0508F400BA6002800360
:0308F900020B9B54
:0608FC001205DA020B9B5D
:0A0902001201CCE5826003020B9B9A
:06090C001205DA020B9B4C
:0D09120090E6B8E0FA530280BA800280033C
:03091F00020A9C2D
:0B09220090E6B9E0FABA0003020A13E5
:05092D00BA060280354E
:05093200BA0802800874
:05093700BA0A0280175E
:03093C00020A9616
:0C093F0090E740E516F090E68AE4F090A6
:08094B00E68B7401F0020B9B26
:0C09530090E740E517F090E68AE4F09091
:08095F00E68B7401F0020B9B12
:0A09670090E6BBE0FABA0102801727
:05097100BA020280380B
:05097600BA03028059E4
:05097B00BA0602801B1A
:05098000BA0702803CF3
:03098500020A0D56
:0A098800AA18AB1990E6B3EBF07B60
:090992000090E6B4EAF0020B9BB0
:0A099B00AA1AAB1B90E6B3EBF07B49
:0909A5000090E6B4EAF0020B9B9D
:0A09AE00AA1CAB1D90E6B3EBF07B32
:0909B8000090E6B4EAF0020B9B8A
:0A09C100AA1EAB1F90E6B3EBF07B1B
:0909CB000090E6B4EAF0020B9B77
:0E09D40090E6BAE0FA90E09CE0FBC3EA9B409C
:0709E200061205DA020B9B6F
:0C09E90090E6BAE075F002A4249DF582AF
:0B09F50074E035F0F583E0FAA3E09019
:0D0A0000E6B3F07B0090E6B4EAF0020B9B39
:060A0D001205DA020B9B4A
:0D0A130090E6B8E0FA53021FBA0002800A14
:050A2000BA0102801D77
:050A2500BA0268802EFA
:0E0A2A0090E7407401F090E741E4F090E68A16
:0A0A3800F090E68B7402F0020B9BB5
:0E0A420090E740E4F090E741F090E68AF090F3
:080A5000E68B7402F0020B9B1F
:0E0A580090E6BCE0F582120873E582602590FE
:0E0A6600E6BCE0F582120892E0FA530201901D
:0E0A7400E740EAF090E741E4F090E68AF09067
:080A8200E68B7402F0020B9BED
:060A8A001205DA020B9BCD
:060A90001205DA020B9BC7
:060A96001205DA020B9BC1
:0C0A9C0090E6B9E0FA24F45003020B9835
:070AA800EA2A2A900AAF734D
:070AAF00020B98020AE502A8
:060AB6000B60020B41027F
:060ABC000B98020B9802EA
:060AC2000B98020B9802E4
:060AC8000B98020AD302A4
:050ACE000B98020ADC98
:090AD30090E6BAE0F516020B9B57
:090ADC0090E6BAE0F517020B9B4D
:0D0AE50090E6B8E0FA53021FBA0002800547
:050AF200BA0247800A72
:0A0AF70090E6BAE01205DA020B9B4C
:0D0B010090E6BAE0703090E6BCE0F582129C
:0D0B0E000873E582602390E6BCE0F58212DA
:0E0B1B000892AA82AB83E0FC5304FE8A828B10
:0E0B290083ECF090E6BCE0F5821205E28064F9
:050B37001205DA805FE9
:050B3C001205DA805AE9
:0E0B410090E6B8E0FA53021FBA004F90E6BAF1
:070B4F00E0FABA0102800583
:050B5600BA020280401C
:050B5B001205DA803BE9
:0E0B600090E6BAE0FA702C90E6BCE0F5821246
:0D0B6E000873E582601A90E6BCE0F5821283
:0E0B7B000892AA82AB83E0FC4304018A828BBD
:050B890083ECF0800D7B
:050B8E001205DA8008E9
:050B93001205DA8003E9
:030B98001205DA69
:080B9B0090E6A0E04480F02286
:0E0BA30020F71030F6118883A88220F507F69F
:050BB100A8837583001C
:010BB600221C
:030BB700F280F7D2
:020BBA00F02227
:050BBC00AA82BA03004B
:070BC1004005EA249C5001ED
:010BC800220A
:090BC900740F5AFBBB0302800704
:070BD200740F5AFBBB0B4539
:0A0BD900A2AF9202C2AFEA2400F5B9
:0C0BE30082E43400F5837402F07B00749F
:0C0BEF00012AFCE43BFDEC2400F582ED43
:0A0BFB003400F583E523FCF07402DA
:0C0C05002AFAE43BFBEA2400F582EB3401
:0A0C110000F583AA227B00EAF0A29E
:030C1B000292AF93
:010C1E0022B3
:080C1F00E582FA248350012252
:060C2700EA540360012203
:0A0C2D00A2AF9203C2AFEA2400F563
:0C0C370082E43401F5837402F07B007449
:0C0C4300012AFCE43BFDEC2400F582EDEE
:0A0C4F003401F583E523F074022A56
:0B0C5900FAE43BFBEA2400F582EB34D8
:080C640001F583AA22EAF0A2C7
:040C6C000392AF221E
:080C7000E582FA24CB500122B9
:060C7800EA5403600122B2
:0A0C7E00A2AF9204C2AFEA2480F591
:0C0C880082E43400F5837402F07B0074F9
:0C0C9400012AFCE43BFDEC2480F582ED1D
:0A0CA0003400F583E523F074022A06
:0B0CAA00FAE43BFBEA2480F582EB3407
:080CB50000F583AA22EAF0A277
:040CBD000492AF22CC
:080CC100C2E8C2EA75220075C9
:060CC900230175824312B5
:040CCF000BBC7522C3
:030CD30080752306
:0C0CD60000758253120BBC0090E650E445
:0E0CE200F00090E652E4F00090E654E4F000DA
:0E0CF00090E656E4F00090E65174FFF000909C
:0E0CFE00E65374FFF00090E65574FFF000908E
:0E0D0C00E65774FFF00090E658E4F090E659C8
:0E0D1A0074FFF090E65AE4F090E65B74FFF090
:0E0D280090E65CE4F090E65D74FFF090E65E0D
:0E0D3600E4F090E65F74FFF00090E660E4F0F9
:0D0D44000090E66174FFF090E662E4F0902C
:0E0D5100E66374FFF090E665E4F090E66874E7
:0A0D5F000BF05391AFD2E8D2EA2264
:010D69002267
:020D6A00AA825B
:060D6C00120D69DAFB2202
:030D720090FB50A3
:080D7500A3E582458370F92219
:040D7D00AA82AB8318
:080D8100120D721ABAFF011BEA
:050D8900EA4B70F422AA
:030DC40075812511
:0A0DC7001205B8E5826003020DBFBB
:00000001FF
