:0600000002120B02006B6E
:03000B0002006B85
:0300130002006B7D
:03001B0002006B75
:0300230002006B6D
:03002B0002006B65
:0300330002006B5D
:03003B0002006B55
:0300430002006B4D
:03004B0002006B45
:0300530002006B3D
:03005B0002006B35
:0300630002006B2D
:01006B003262
:0900800002006B0002006B00029B
:08008900006B0002006B000295
:08009100006B0002006B00028D
:08009900006B0002006B000285
:0800A100006B0002006B00027D
:0800A900006B0002006B000275
:0700B100006B0002006B0070
:0901000002006B0002006B00021A
:08010900006B0002006B000214
:08011100006B0002006B00020C
:08011900006B0002006B000204
:08012100006B0002006B0002FC
:08012900006B0002006B0002F4
:08013100006B0002006B0002EC
:08013900006B0002006B0002E4
:08014100006B0002006B0002DC
:08014900006B0002006B0002D4
:08015100006B0002006B0002CC
:08015900006B0002006B0002C4
:08016100006B0002006B0002BC
:08016900006B0002006B0002B4
:08017100006B0002006B0002AC
:07017900006B0002006B00A7
:09018000E582FA700443A040225C
:0401890053A0BF229E
:09018D00E582FA700443A080220F
:0401960053A07F22D1
:04019A0063A04022FC
:04019E0063A08022B8
:0101A200223A
:0101A3002239
:0B01A400AA82901800E509F0743F5596
:0601AF0008FBEAB40100A8
:0901B500E433FA60047A028002CE
:0201BE007A04C1
:0501C0008B288A29755F
:0401C5002A20752B4C
:0301C90000752C92
:0801CC0018752D017582000277
:0201D40008968B
:0C01D600AA82901800E50AF0743F5AF568
:0501E2002875290675D7
:0401E7002A20752B2A
:0301EB0000752C70
:0801EE0018752D017582000255
:0201F600089669
:0A01F800750A017582011201D67527
:090202000A0F7582081201D6757D
:08020B000A007582140201D6FD
:0D0213001201A21207EF53A0FE43A001024A
:0202200001F8E3
:09022200AA82901801E50BF075A9
:03022B001B01753F
:03022E001C187524
:0C0231001D018A82C002120AEEE582D094
:06023D00027003F58222AD
:04024300850C1B8586
:030247000D1C8506
:05024A000E1D8A820276
:02024F000A2E75
:0C02510053A0C17582281211E743A004DD
:09025D00E5A030E5FB75820122E9
:0E026600E5821392A1D2A3C2A31392A1D2A348
:0E027400C2A31392A1D2A3C2A31392A1D2A33C
:0E028200C2A31392A1D2A3C2A31392A1D2A32E
:0E029000C2A31392A1D2A3C2A31392A1D2A320
:03029E00C2A322D6
:0602A100AA82AB0FAC10B5
:0E02A7008A051AED60128B828C83E0FDA3ABFA
:0A02B50082AC838D8212026680E89D
:0102BF00221C
:0702C00085820F8583108584
:0902C70011821202A175820122CC
:0A02D000E5A0FA20E5047582002283
:0A02DA00530210BA100475820122CD
:0402E40075820022FD
:07120B00751200751300903D
:091212001802E4F0901803F090BA
:07121B001804F0901805F023
:0A02E800AA82747F5AF528752901D7
:0502F200752A208514AF
:0302F7002B85153F
:0802FA002C752D047582000231
:0203020008965B
:080304007A00E51660027A019F
:07030C00E517600343020244
:07031300E512600343020440
:07031A00E513600343020834
:07032100901805EAF07514C5
:0303280002751546
:07032B00187582040202E8CC
:0C033200E5825401FA601053A0FE75161D
:08033E0000751700751200752F
:030346001300227F
:0403490043A00122AA
:0C034D00AA825302018A16C002120304A7
:0C035900D002EA600975190043B1085396
:02036500B1F7EE
:010367002273
:0C036800AA825302018A17C0021203048B
:0C037400D002EA600975180043B108537C
:02038000B1F7D3
:010382002258
:0A038300AA8274015AF51202030465
:0A038D00AA8274015AF5130203045A
:0E03970090E6007410F0758E0090E60174F28E
:0E03A500F00075803875B23B75A0C075B4CFFE
:0E03B30075B1F075B6F890E61074A0F00090E9
:0E03C100E61174E0F00090E61274A0F00090D7
:0D03CF00E613E4F00090E61474E0F00090F6
:0D03DC00E615E4F00090E6047480F0009057
:0E03E900E6047402F00090E6047406F0009042
:0D03F700E604E4F00090E6187401F00090B8
:0E040400E6187411F00090E61A7409F00090EA
:0E041200E68AE4F00090E68DE4F00090E6D279
:0E0420007401F00090E6E27402F00090E62411
:0D042E007402F00090E625E4F000020213D5
:0E12550001010101010101070000000000007D
:0E12630000000000000000000000000000007D
:0E1271000000003F013F0101010101072203BF
:0E127F00020202020200000101010101010051
:0E128D00000000000000003F0111013F0101C0
:0E129B0001070003000100000000060404002B
:0E12A90000000000002D002D0000003F013964
:0E12B700010101010107000302020202020010
:0E12C5000000000000000000002D00000000EE
:0212D300003FDA
:0E12D50000000000000000000000000000000B
:0E12E30000000000812D26000404030200819B
:0812F1002D210004040302009A
:0712F900A0000000EE4E0012
:0312370002123F61
:07122200751A017516007535
:06122900170075180075A6
:02122F001900A4
:0312520002123A4B
:05123A0012078A80FE8E
:05043B0090E68BE4F0E7
:0904400090E6A0E0FA20E1F822A8
:0A04490090E6B8E0FABAC0028003A2
:0304530002051E81
:0A04560090E6B9E0FABA8002800EC9
:05046000BA8102804793
:06046500BA82030204DA72
:03046B0002051A6D
:0C046E0090E6BCE0FA6005BA013080178F
:0A047A0090E740E519F075190090B5
:0D048400E68AE4F090E68B7401F002064871
:0A04910090E740E518F075180090A0
:0D049B00E68AE4F090E68B7401F00206485A
:0404A8007582002237
:0A04AC0090E6BAE0FA751B40751CDB
:0C04B600E790E6BEE0F51D8A82120A2ED7
:0704C200E5827003F58222C0
:0E04C90090E68AE4F090E6BEE0FA90E68BF052
:0304D700020648D2
:0C04DA0090E6BBE0FA90E6BAE0F5229054
:0A04E600E6BDE0F52390E6BCE0F56A
:0504F000247525407594
:0A04F50026E790E6BEE0F5278A82B4
:0A04FF00120828E5827003F582223E
:0E05090090E68AE4F090E6BEE0FA90E68BF011
:0305170002064891
:04051A0075820022C4
:0A051E0090E6B8E0FABA400280034C
:0305280002064484
:0C052B0090E6B9E0FA24F4500302064008
:07053700EA2A2A90053E7339
:07053E000206400205620203
:06054500058A02064002D7
:06054B0005B40205C00228
:0605510005CC0206400289
:0605570005EE02060E0293
:05055D0005D80205E3D2
:0C05620090E6BCE0FA6005BA011A800CBB
:0C056E0090E6BAE0F58212018002064817
:0C057A0090E6BAE0F58212018D020648FE
:040586007582002258
:0C058A0090E6BCE0FA600ABA01028008AA
:05059600BA02178012FB
:03059B0002025108
:0C059E0012043B90E68BE0F51190E74062
:0305AA000202C08A
:0305AD000202D077
:0405B000758200222E
:0C05B40090E6BAE0F5821203320206481D
:0C05C00090E6BAE0F58212034D020648F6
:0C05CC0090E6BAE0F582120368020648CF
:0B05D80090E6BAE0F582120383806514
:0B05E30090E6BAE0F58212038D805A0A
:0C05EE0012043B90E6BAE0FA751B407561
:0A05FA001CE790E68BE0F51D8A82F5
:0A060400120AEEE582703DF5822235
:0D060E0012043B90E6BBE0FA90E6BAE0F57E
:0A061B002890E6BDE0F52990E6BC4A
:07062500E0F52A752B40757A
:0A062C002CE790E68BE0F52D8A82A2
:0A063600120896E582700BF582228F
:04064000758200229D
:040644007582002299
:040648007582012294
:0D064C0090E6C67481F090E6C7742DF09022
:0E065900E6C87426F090E6C9E4F090E6CA7494
:0E06670004F090E6CB7404F090E6CC7403F03F
:0B06750090E6CD7402F090E60CE4F07B
:06068000300003120CE93A
:0E068600E5BB30E7F5E58054C06016E5803036
:05069400E703751901E8
:08069900E58030E6037518014D
:0606A10043B10853B1F75C
:0C06A700E516602AE5AB20E12590E6F4A2
:0D06B300E0FA30E01D90E6D07401F00090F8
:0E06C000E6D1E4F00090E6C87421F00075BBAE
:0206CE0000002A
:0506D000E5BB30E7FB73
:0C06D500E51760A790E6A5E0FA20E39F7F
:0E06E10090E6F4E0FA30E19790E6D07401F074
:0E06EF000090E6D1E4F00090E6C87426F0001A
:0406FD0075BB0600C3
:0D070100E5BB30E7FB0090E6487406F0020F
:02070E00068063
:0A071000C0E0D51A06751A3263A086
:01071A00409E
:05071B00C2CFD0E03266
:04072000750C0675D9
:030724000D187538
:090727000B05750E0175825012DC
:080730000222901806E0FA9085
:0C073800E00CF090E05AEAF074302A90D7
:05074400E0CEF0750C91
:0307490007750D24
:05074C0018750BF875A3
:0A0751000E087582501202227A0091
:03075B00BA0800D9
:0A075E005029EA2407F582E434185C
:09076800F583E0FBBBFF027B30CE
:0C0771008A04E4CC25E0CC33FDEC242A03
:0C077D00F582ED34E1F583EBF00A80D248
:01078900224D
:08078A00751B00751C10E4F55D
:0B0792001D90E1F075F000120B6712E3
:0E079D000397120FCA90E601E04404F0758243
:0D07AB000012018075820012018DC2AF1294
:0607B800072012112212BD
:0507BE000C537A107BD2
:0C07C300078A828B831211CAD2EAD2AFDF
:0607CF00120A0A02064CAA
:0CE0000012010002FFFFFF40FEFF0200C3
:06E00C0000010102060103
:0AE012000A060002FFFFFF400100B4
:0EE01C0009023200030100C0000904000000E8
:0EE02A00FFFFFF030904010001FFFFFF0407D1
:0EE038000502020002000904020001FFFFFFC2
:08E04600050705860200020037
:0CE04E0012010002FFFFFF40FEFF020075
:06E05A00000101020001BB
:0AE060000A060002FFFFFF40010066
:0EE06A0009021200010100C0000904000000BC
:04E07800FFFFFF03A4
:01E07C00079C
:02E07D008CE035
:02E07F0092E02D
:02E08100BAE003
:02E08300D0E0EB
:02E08500F2E0C7
:02E087000EE1A8
:02E0890028E18C
:06E08C0006030000090478
:0EE09200280346007200650065002000530060
:0EE0A0006F006600740077006100720065007A
:0CE0AE00200046006F006C006B00730047
:0EE0BA00160355005300520050002000520083
:06E0C80065007600200057
:02E0CE003F0011
:0EE0D000220343006F006D006D0061006E00C2
:0EE0DE00640020002600200053007400610042
:06E0EC00740075007300D2
:0EE0F2001C035400720061006E0073006D008C
:0EE10000690074002000500061007400680087
:0EE10E001A0352006500630065006900760088
:0CE11C00650020005000610074006800E5
:02E128001203E0
:0EE12A0033002E003100340031003500390082
:02E138003300B2
:0E07D500AA8263020143803874075AC4035499
:0C07E300F8628043B1F074F05A62B12259
:0907EF007582001207D5C28122B7
:0A07F800AA827B00EA30E0027B01D8
:05080200EA30E1010BEA
:05080700EA30E2010BE4
:05080C00EA30E3010BDE
:05081100EA30E4010BD8
:05081600EA30E5010BD2
:05081B00EA30E6010BCC
:05082000EA30E7010BC6
:030825008B8222A1
:0C082800AA82852382C0021207F8AB826E
:0B083400D002EB24FE5004758200226D
:0B083F00852382C0021207D5D002E51D
:08084A002430E704758200224E
:0C08520074605524FB6023BB200280056D
:05085E00BB40178008FB
:080863008522821208EF8011CA
:09086B008A821208EF8522821234
:0408740008EF800405
:040878007582002263
:06087C00E527600C852752
:050882002F8525828591
:0508870026831209A701
:0A088C007582001207D57582012263
:0C089600AA82852982C0021207D5D00278
:0908A200E52A30E704758200220A
:0C08AB007460552AFB6023BB200280050E
:0508B700BB40178008A2
:0808BC008528821208EF80116B
:0908C4008A821208EF85288212D5
:0408CD0008EF8004AC
:0408D100758200220A
:0608D500E52D600C852DED
:0508DB002E852B828533
:0508E0002C8312094009
:0A08E5007582001207D5758201220A
:0E08EF00E58223FA139281D280C280EA23FAB6
:0E08FD00139281D280C280EA23FA139281D234
:0E090B0080C280EA23FA139281D280C280EA71
:0E09190023FA139281D280C280EA23FA13924D
:0E09270081D280C280EA23FA139281D280C26C
:0B09350080EA23139281D280C280224E
:06094000AA82AB83AC2E7D
:0E0946008C051CED601E8A828B83E0FDA3AA47
:0E09540082AB838D82C002C003C0041208EF84
:08096200D004D003D00280DCB8
:01096A00226A
:0E096B00E4D280A28233C280D280A28233C244
:0E09790080D280A28233C280D280A28233C29A
:0E09870080D280A28233C280D280A28233C28C
:0E09950080D280A28233C280D280A28233C27E
:0409A30080F5822237
:0609A700AA82AB83AC2F15
:0E09AD008C051CED601212096BAD828A828BE4
:0A09BB0083EDF0A3AA82AB8380E86D
:0109C500220F
:0809C600780FE84400600C7991
:0C09CE0001901800E4F0A3D8FCD9FAD086
:0E09DA0083D082F6D8FDC082C08375820022D1
:0809E80090E6A0E04401F022BA
:0E09F000AA8274805AC423541FFB740F5A90BD
:0C09FE00E6834BF090E683E04420F022FA
:0E0A0A0090E680E0440AF09000FA1211FA9093
:0E0A1800E65D74FFF090E65F74FFF05391EF1F
:080A260090E680E054F7F02295
:06124C00E478FFF6D8FD76
:0A0A2E00AA82E51D70047582012202
:0E0A380090E678E0FB20E6F890E6787480F017
:0A0A4600EA2AFA90E67974014AF0FA
:0E0A500090E678E0FA30E0F890E678E0FA30D0
:050A5E00E203020AE3BF
:0B0A630090E678E0FA20E103020AE3CD
:0C0A6E007401B51D0890E678E0FA442001
:010A7A00F08B
:090A7B0090E679E0F51EAA1BAB20
:030A84001CAC1D8A
:040A87001CEC6030D3
:0E0A8B0090E678E0FD30E0F890E678E0FD209F
:0D0A9900E248BC010890E678E0FD4420F042
:0E0AA60090E679E0FD8A828B83F0A3AA82ABF2
:070AB400838A1B8B1C80CC20
:0E0ABB0090E678E0FA30E0F890E678E0FA2075
:0C0AC900E21890E678E04440F0AA1BAB75
:0C0AD5001C90E679E08A828B83F0758229
:020AE1000122F0
:0B0AE30090E678E04440F075820022AD
:020AEE00AA82DA
:0E0AF00090E678E0FB20E6F890E6787480F05F
:070AFE00EA2AFA90E679F004
:0E0B050090E678E0FA30E0F890E678E0FA202A
:0C0B1300E24790E678E0FA30E13FAA1BD0
:040B1F00AB1CAC1D42
:0E0B2300EC602B8A828B83E0FDA3AA82AB8359
:060B310090E679EDF01CD6
:0E0B370090E678E0FD30E0F890E678E0FD20F2
:0C0B4500E21590E678E0FD20E1D4800B82
:0B0B510090E678E04440F0758201223D
:0B0B5C0090E678E04440F07582002233
:0A0B6700AC82AD83AE1CAF1DBE00D2
:050B710004EF600C1F01
:030B76000FE51B6D
:080B7900120FB1A3DEFADFF850
:050B81008C828D83222F
:061231007530007531006C
:0A0B860090E680E0FA30E7197532BE
:030B9000007533BA
:030B9300E07534D6
:030B9600127535A0
:030B9900E07536CE
:030B9C001C75378E
:030B9F00E07538C6
:030BA2006A753938
:020BA500E0224C
:040BA70075324E75E0
:030BAB0033E075BF
:030BAE003460753B
:030BB10035E075B7
:030BB400366A7529
:030BB70037E075AF
:030BBA00381C756F
:030BBD0039E022FA
:090BC0005391EF75A100D200323F
:0C0BC900C021C0E0C0F0C082C083C002A8
:0E0BD500C003C004C005C006C007C000C001B8
:0E0BE300C0D075D0005391EF75A100120B86A3
:0E0BF100D0D0D001D000D007D006D005D0045F
:0D0BFF00D003D002D083D082D0F0D0E0D05F
:020C0C00213293
:0C0C0E00C021C0E0C0F0C082C083C00262
:0E0C1A00C003C004C005C006C007C000C00172
:0E0C2800C0D075D0005391EF75A100120B865D
:0E0C3600D0D0D001D000D007D006D005D00419
:0D0C4400D003D002D083D082D0F0D0E0D019
:020C510021324E
:050C5300120B86751B69
:030C5800C0751C48
:080C5B000B7582001210807578
:030C63001BC97535
:060C66001C0B7582101248
:040C6C001080751B64
:030C70000E751CE2
:0C0C73000C75821412108090E65C743145
:020C7F00F02261
:0D0C8100E582547FFA24F7500475820022AA
:070C8E00BA01047582012286
:080C9500530201E4BA0001045E
:030C9D00F58222BB
:0E0CA000AA82BA010C90E6A1E0FB7C008B82D8
:030CAE008C832212
:0E0CB100BA810C90E6A2E0FB7C008B828C8363
:010CBF002212
:0E0CC00053027FEA700C90E6A0E0FB7C008BF4
:040CCE00828C83226F
:0E0CD20090E6A3E0FB7C00EAC313FA7D00EA83
:090CE0002BFBED3C8B82F5832215
:0C0CE900C20090E6B8E0FA530260BA00C6
:030CF50002802852
:050CF800BA2002800D8E
:050CFD00BA4002800E68
:050D0200BA600280034D
:030D0700020FA92F
:060D0A001209E8020FA926
:0A0D1000120449E5826003020FA9F6
:060D1A001209E8020FA916
:0D0D200090E6B8E0FA530280BA800280032A
:030D2D00020EAA09
:0B0D300090E6B9E0FABA0003020E21C1
:050D3B00BA060280353C
:050D4000BA0802800862
:050D4500BA0A0280174C
:030D4A00020EA4F2
:0C0D4D0090E740E530F090E68AE4F0907A
:080D5900E68B7401F0020FA902
:0C0D610090E740E531F090E68AE4F09065
:080D6D00E68B7401F0020FA9EE
:0A0D750090E6BBE0FABA0102801715
:050D7F00BA02028038F9
:050D8400BA03028059D2
:050D8900BA0602801B08
:050D8E00BA0702803CE1
:030D9300020E1B32
:0A0D9600AA32AB3390E6B3EBF07B1A
:090DA0000090E6B4EAF0020FA98C
:0A0DA900AA34AB3590E6B3EBF07B03
:090DB3000090E6B4EAF0020FA979
:0A0DBC00AA36AB3790E6B3EBF07BEC
:090DC6000090E6B4EAF0020FA966
:0A0DCF00AA38AB3990E6B3EBF07BD5
:090DD9000090E6B4EAF0020FA953
:0E0DE20090E6BAE0FA90E07CE0FBC3EA9B40AA
:070DF000061209E8020FA939
:0C0DF70090E6BAE075F002A4247DF582BD
:0B0E030074E035F0F583E0FAA3E09006
:0D0E0E00E6B3F07B0090E6B4EAF0020FA915
:060E1B001209E8020FA914
:0D0E210090E6B8E0FA53021FBA0002800A02
:050E2E00BA0102801D65
:050E3300BA0268802EE8
:0E0E380090E7407401F090E741E4F090E68A04
:0A0E4600F090E68B7402F0020FA991
:0E0E500090E740E4F090E741F090E68AF090E1
:080E5E00E68B7402F0020FA9FB
:0E0E660090E6BCE0F582120C81E582602590DA
:0E0E7400E6BCE0F582120CA0E0FA53020190F9
:0E0E8200E740EAF090E741E4F090E68AF09055
:080E9000E68B7402F0020FA9C9
:060E98001209E8020FA997
:060E9E001209E8020FA991
:060EA4001209E8020FA98B
:0C0EAA0090E6B9E0FA24F45003020FA611
:070EB600EA2A2A900EBD7329
:070EBD00020FA6020EF30272
:060EC4000F6E020F4F0249
:060ECA000FA6020FA602B4
:060ED0000FA6020FA602AE
:060ED6000FA6020EE1026E
:050EDC000FA6020EEA62
:090EE10090E6BAE0F530020FA919
:090EEA0090E6BAE0F531020FA90F
:0D0EF30090E6B8E0FA53021FBA0002800535
:050F0000BA0247800A5F
:0A0F050090E6BAE01209E8020FA915
:0D0F0F0090E6BAE0703090E6BCE0F582128A
:0D0F1C000C81E582602390E6BCE0F58212B6
:0E0F29000CA0AA82AB83E0FC5304FE8A828BEC
:0E0F370083ECF090E6BCE0F5821209F08064D5
:050F45001209E8805FC5
:050F4A001209E8805AC5
:0E0F4F0090E6B8E0FA53021FBA004F90E6BADF
:070F5D00E0FABA0102800571
:050F6400BA020280400A
:050F69001209E8803BC5
:0E0F6E0090E6BAE0FA702C90E6BCE0F5821234
:0D0F7C000C81E582601A90E6BCE0F582125F
:0E0F89000CA0AA82AB83E0FC4304018A828B99
:050F970083ECF0800D69
:050F9C001209E88008C5
:050FA1001209E88003C5
:030FA6001209E845
:080FA90090E6A0E04480F02274
:0E0FB10020F71030F6118883A88220F507F68D
:050FBF00A8837583000A
:010FC400220A
:030FC500F280F7C0
:020FC800F02215
:0D0FCA0090E6F574FFF0009012F9E49390AA
:0D0FD700E6F3F09012FAE49390E6C3F09078
:0E0FE40012FBE49390E6C1F09012FCE49390AF
:0E0FF200E6C2F09012FEE49390E6C0F07A00A2
:03100000BA8000B3
:0E10030050128A037CE4EA90125593FD8B8212
:061011008C83F00A80E967
:0610170090E6C6E4F022A1
:05101D00AA82BA0300E5
:071022004005EA249C500187
:0110290022A4
:09102A00740F5AFBBB030280079E
:07103300740F5AFBBB0B45D3
:0A103A00A2AF9201C2AFEA2400F554
:0C10440082E43400F5837402F07B007439
:0C105000012AFCE43BFDEC2400F582EDDD
:0A105C003400F583E51CFCF074027B
:0C1066002AFAE43BFBEA2400F582EB349C
:0A10720000F583AA1B7B00EAF0A240
:03107C000192AF2F
:01107F00224E
:08108000E582FA2483500122ED
:06108800EA54036001229E
:0A108E00A2AF9202C2AFEA2400F5FF
:0C10980082E43401F5837402F07B0074E4
:0C10A400012AFCE43BFDEC2400F582ED89
:0A10B0003401F583E51CF074022AF8
:0B10BA00FAE43BFBEA2400F582EB3473
:0810C50001F583AA1BEAF0A269
:0410CD000292AF22BA
:0810D100E582FA24CB50012254
:0610D900EA54036001224D
:0A10DF00A2AF9203C2AFEA2480F52D
:0C10E90082E43400F5837402F07B007494
:0C10F500012AFCE43BFDEC2480F582EDB8
:0A1101003400F583E51CF074022AA7
:0B110B00FAE43BFBEA2480F582EB34A1
:0811160000F583AA1BEAF0A218
:04111E000392AF2267
:08112200C2E8C2EA751B00756A
:06112A001C017582431256
:04113000101D751BFE
:0311340080751CA7
:0C1137000075825312101D0090E650E479
:0E114300F00090E652E4F00090E654E4F00074
:0E11510090E656E4F00090E65174FFF0009036
:0E115F00E65374FFF00090E65574FFF0009028
:0E116D00E65774FFF00090E658E4F090E65963
:0E117B0074FFF090E65AE4F090E65B74FFF02B
:0E11890090E65CE4F090E65D74FFF090E65EA8
:0E119700E4F090E65F74FFF00090E660E4F094
:0D11A5000090E66174FFF090E662E4F090C7
:0E11B200E66374FFF090E665E4F090E6687482
:0A11C0000BF05391AFD2E8D2EA22FF
:0A11CA00AA82AB83C2AD8A1B8B1C06
:0E11D40075822B12101D75CB6375CAC075C8CD
:0411E20004D2AD2264
:0111E60022E6
:0211E700AA82DA
:0611E9001211E6DAFB2200
:0311EF0090FB5022
:0811F200A3E582458370F92298
:0411FA00AA82AB8397
:0811FE001211EF1ABAFF011BE8
:05120600EA4B70F42228
:03123F007581397D
:0A1242001209C6E582600302123AA9
:00000001FF
